{
  "contractName": "Padswap",
  "abi": [
    {
      "inputs": [],
      "stateMutability": "nonpayable",
      "type": "constructor"
    },
    {
      "anonymous": false,
      "inputs": [
        {
          "indexed": false,
          "internalType": "uint256",
          "name": "offerAcceptedId",
          "type": "uint256"
        },
        {
          "indexed": false,
          "internalType": "address",
          "name": "userAccepted",
          "type": "address"
        }
      ],
      "name": "LogOfferAccepted",
      "type": "event"
    },
    {
      "anonymous": false,
      "inputs": [
        {
          "indexed": false,
          "internalType": "uint256",
          "name": "offerAddedId",
          "type": "uint256"
        },
        {
          "indexed": false,
          "internalType": "address",
          "name": "userAdded",
          "type": "address"
        }
      ],
      "name": "LogOfferAdded",
      "type": "event"
    },
    {
      "anonymous": false,
      "inputs": [
        {
          "indexed": false,
          "internalType": "uint256",
          "name": "offerCanceledId",
          "type": "uint256"
        },
        {
          "indexed": false,
          "internalType": "address",
          "name": "userCanceled",
          "type": "address"
        }
      ],
      "name": "LogOfferCanceled",
      "type": "event"
    },
    {
      "anonymous": false,
      "inputs": [
        {
          "indexed": false,
          "internalType": "uint256",
          "name": "offerCanceledId",
          "type": "uint256"
        },
        {
          "indexed": false,
          "internalType": "address",
          "name": "userCanceled",
          "type": "address"
        }
      ],
      "name": "LogOfferHeld",
      "type": "event"
    },
    {
      "anonymous": false,
      "inputs": [
        {
          "indexed": false,
          "internalType": "uint256",
          "name": "offerCanceledId",
          "type": "uint256"
        },
        {
          "indexed": false,
          "internalType": "address",
          "name": "userCanceled",
          "type": "address"
        }
      ],
      "name": "LogOfferUnheld",
      "type": "event"
    },
    {
      "inputs": [
        {
          "internalType": "address",
          "name": "",
          "type": "address"
        }
      ],
      "name": "approvedERC20",
      "outputs": [
        {
          "internalType": "bool",
          "name": "",
          "type": "bool"
        }
      ],
      "stateMutability": "view",
      "type": "function",
      "constant": true
    },
    {
      "inputs": [],
      "name": "fee",
      "outputs": [
        {
          "internalType": "uint256",
          "name": "",
          "type": "uint256"
        }
      ],
      "stateMutability": "view",
      "type": "function",
      "constant": true
    },
    {
      "inputs": [],
      "name": "offerCount",
      "outputs": [
        {
          "internalType": "uint256",
          "name": "",
          "type": "uint256"
        }
      ],
      "stateMutability": "view",
      "type": "function",
      "constant": true
    },
    {
      "inputs": [
        {
          "internalType": "address",
          "name": "",
          "type": "address"
        }
      ],
      "name": "offerCountByAddress",
      "outputs": [
        {
          "internalType": "uint256",
          "name": "",
          "type": "uint256"
        }
      ],
      "stateMutability": "view",
      "type": "function",
      "constant": true
    },
    {
      "inputs": [
        {
          "internalType": "uint256",
          "name": "",
          "type": "uint256"
        }
      ],
      "name": "offers",
      "outputs": [
        {
          "internalType": "address payable",
          "name": "offerer",
          "type": "address"
        },
        {
          "internalType": "address payable",
          "name": "asker",
          "type": "address"
        },
        {
          "internalType": "uint256",
          "name": "offerVal",
          "type": "uint256"
        },
        {
          "internalType": "uint256",
          "name": "blockNum",
          "type": "uint256"
        },
        {
          "internalType": "enum Padswap.State",
          "name": "state",
          "type": "uint8"
        }
      ],
      "stateMutability": "view",
      "type": "function",
      "constant": true
    },
    {
      "inputs": [
        {
          "internalType": "address",
          "name": "",
          "type": "address"
        },
        {
          "internalType": "uint256",
          "name": "",
          "type": "uint256"
        }
      ],
      "name": "offersByAddress",
      "outputs": [
        {
          "internalType": "uint256",
          "name": "",
          "type": "uint256"
        }
      ],
      "stateMutability": "view",
      "type": "function",
      "constant": true
    },
    {
      "inputs": [
        {
          "internalType": "address",
          "name": "",
          "type": "address"
        },
        {
          "internalType": "uint256",
          "name": "",
          "type": "uint256"
        }
      ],
      "name": "offersCreatedByAddress",
      "outputs": [
        {
          "internalType": "uint256",
          "name": "",
          "type": "uint256"
        }
      ],
      "stateMutability": "view",
      "type": "function",
      "constant": true
    },
    {
      "inputs": [
        {
          "internalType": "address",
          "name": "",
          "type": "address"
        }
      ],
      "name": "offersCreatedCountByAddress",
      "outputs": [
        {
          "internalType": "uint256",
          "name": "",
          "type": "uint256"
        }
      ],
      "stateMutability": "view",
      "type": "function",
      "constant": true
    },
    {
      "inputs": [],
      "name": "owner",
      "outputs": [
        {
          "internalType": "address payable",
          "name": "",
          "type": "address"
        }
      ],
      "stateMutability": "view",
      "type": "function",
      "constant": true
    },
    {
      "inputs": [],
      "name": "stakedTokenAddress",
      "outputs": [
        {
          "internalType": "address",
          "name": "",
          "type": "address"
        }
      ],
      "stateMutability": "view",
      "type": "function",
      "constant": true
    },
    {
      "inputs": [],
      "name": "stopped",
      "outputs": [
        {
          "internalType": "bool",
          "name": "",
          "type": "bool"
        }
      ],
      "stateMutability": "view",
      "type": "function",
      "constant": true
    },
    {
      "inputs": [
        {
          "internalType": "bool",
          "name": "_stopped",
          "type": "bool"
        }
      ],
      "name": "setStopped",
      "outputs": [],
      "stateMutability": "nonpayable",
      "type": "function"
    },
    {
      "inputs": [
        {
          "internalType": "address",
          "name": "_addy",
          "type": "address"
        }
      ],
      "name": "setToken",
      "outputs": [],
      "stateMutability": "nonpayable",
      "type": "function"
    },
    {
      "inputs": [
        {
          "internalType": "uint256",
          "name": "_offerVal",
          "type": "uint256"
        },
        {
          "internalType": "address payable",
          "name": "_targetAddress",
          "type": "address"
        }
      ],
      "name": "addOffer",
      "outputs": [
        {
          "internalType": "bool",
          "name": "",
          "type": "bool"
        }
      ],
      "stateMutability": "payable",
      "type": "function",
      "payable": true
    },
    {
      "inputs": [
        {
          "internalType": "uint256",
          "name": "_offerId",
          "type": "uint256"
        }
      ],
      "name": "acceptOffer",
      "outputs": [
        {
          "internalType": "bool",
          "name": "",
          "type": "bool"
        }
      ],
      "stateMutability": "payable",
      "type": "function",
      "payable": true
    },
    {
      "inputs": [
        {
          "internalType": "uint256",
          "name": "_offerId",
          "type": "uint256"
        }
      ],
      "name": "cancelOffer",
      "outputs": [
        {
          "internalType": "bool",
          "name": "",
          "type": "bool"
        }
      ],
      "stateMutability": "nonpayable",
      "type": "function"
    },
    {
      "inputs": [
        {
          "internalType": "uint256",
          "name": "_offerId",
          "type": "uint256"
        }
      ],
      "name": "holdOffer",
      "outputs": [
        {
          "internalType": "bool",
          "name": "",
          "type": "bool"
        }
      ],
      "stateMutability": "nonpayable",
      "type": "function"
    },
    {
      "inputs": [
        {
          "internalType": "uint256",
          "name": "_offerId",
          "type": "uint256"
        }
      ],
      "name": "unholdOffer",
      "outputs": [
        {
          "internalType": "bool",
          "name": "",
          "type": "bool"
        }
      ],
      "stateMutability": "nonpayable",
      "type": "function"
    },
    {
      "inputs": [
        {
          "internalType": "uint256",
          "name": "_offerId",
          "type": "uint256"
        }
      ],
      "name": "finalizeOffer",
      "outputs": [
        {
          "internalType": "bool",
          "name": "",
          "type": "bool"
        }
      ],
      "stateMutability": "nonpayable",
      "type": "function"
    },
    {
      "inputs": [
        {
          "internalType": "uint256",
          "name": "_offerId",
          "type": "uint256"
        }
      ],
      "name": "getOfferState",
      "outputs": [
        {
          "internalType": "bool",
          "name": "",
          "type": "bool"
        }
      ],
      "stateMutability": "view",
      "type": "function",
      "constant": true
    },
    {
      "inputs": [
        {
          "internalType": "uint256",
          "name": "_offerId",
          "type": "uint256"
        }
      ],
      "name": "getOfferOffVal",
      "outputs": [
        {
          "internalType": "uint256",
          "name": "",
          "type": "uint256"
        }
      ],
      "stateMutability": "view",
      "type": "function",
      "constant": true
    },
    {
      "inputs": [
        {
          "internalType": "uint256",
          "name": "_offerId",
          "type": "uint256"
        }
      ],
      "name": "getOfferAsker",
      "outputs": [
        {
          "internalType": "address",
          "name": "",
          "type": "address"
        }
      ],
      "stateMutability": "view",
      "type": "function",
      "constant": true
    },
    {
      "inputs": [
        {
          "internalType": "uint256",
          "name": "_offerId",
          "type": "uint256"
        }
      ],
      "name": "getOfferOfferer",
      "outputs": [
        {
          "internalType": "address",
          "name": "",
          "type": "address"
        }
      ],
      "stateMutability": "view",
      "type": "function",
      "constant": true
    }
  ],
  "bytecode": "0x60806040526000600260006101000a81548160ff02191690831515021790555034801561002b57600080fd5b50336000806101000a81548173ffffffffffffffffffffffffffffffffffffffff021916908373ffffffffffffffffffffffffffffffffffffffff1602179055506000600181905550612af7806100836000396000f3fe6080604052600436106101405760003560e01c80638a72ea6a116100b6578063c49e5b5e1161006f578063c49e5b5e146107cd578063c815729d14610820578063d50e829e14610866578063ddca3f43146108a3578063ef706adf146108ce578063ff333a761461092157610140565b80638a72ea6a146105095780638d0d8ea5146105da5780638da5cb5b1461062d578063986a258814610684578063bd743886146106e9578063bf13308b1461075257610140565b80633ee037e7116101085780633ee037e7146102e957806350d72bd314610358578063517a72cf146103a757806364c989f91461040c5780636f80a0481461045f57806375f12b21146104da57610140565b806309478a4e146101455780631115c24d146101ab578063144fa6d7146101d65780632240ba77146102275780633106c8e814610296575b600080fd5b6101916004803603604081101561015b57600080fd5b8101908080359060200190929190803573ffffffffffffffffffffffffffffffffffffffff169060200190929190505050610978565b604051808215151515815260200191505060405180910390f35b3480156101b757600080fd5b506101c0611026565b6040518082815260200191505060405180910390f35b3480156101e257600080fd5b50610225600480360360208110156101f957600080fd5b81019080803573ffffffffffffffffffffffffffffffffffffffff16906020019092919050505061102c565b005b34801561023357600080fd5b506102806004803603604081101561024a57600080fd5b81019080803573ffffffffffffffffffffffffffffffffffffffff169060200190929190803590602001909291905050506110cb565b6040518082815260200191505060405180910390f35b3480156102a257600080fd5b506102cf600480360360208110156102b957600080fd5b81019080803590602001909291905050506110f9565b604051808215151515815260200191505060405180910390f35b3480156102f557600080fd5b506103426004803603604081101561030c57600080fd5b81019080803573ffffffffffffffffffffffffffffffffffffffff1690602001909291908035906020019092919050505061163a565b6040518082815260200191505060405180910390f35b34801561036457600080fd5b506103916004803603602081101561037b57600080fd5b8101908080359060200190929190505050611668565b6040518082815260200191505060405180910390f35b3480156103b357600080fd5b506103f6600480360360208110156103ca57600080fd5b81019080803573ffffffffffffffffffffffffffffffffffffffff16906020019092919050505061178c565b6040518082815260200191505060405180910390f35b34801561041857600080fd5b506104456004803603602081101561042f57600080fd5b81019080803590602001909291905050506117a4565b604051808215151515815260200191505060405180910390f35b34801561046b57600080fd5b506104986004803603602081101561048257600080fd5b8101908080359060200190929190505050611958565b604051808273ffffffffffffffffffffffffffffffffffffffff1673ffffffffffffffffffffffffffffffffffffffff16815260200191505060405180910390f35b3480156104e657600080fd5b506104ef611a7c565b604051808215151515815260200191505060405180910390f35b34801561051557600080fd5b506105426004803603602081101561052c57600080fd5b8101908080359060200190929190505050611a8f565b604051808673ffffffffffffffffffffffffffffffffffffffff1673ffffffffffffffffffffffffffffffffffffffff1681526020018573ffffffffffffffffffffffffffffffffffffffff1673ffffffffffffffffffffffffffffffffffffffff1681526020018481526020018381526020018260038111156105c257fe5b60ff1681526020019550505050505060405180910390f35b3480156105e657600080fd5b50610613600480360360208110156105fd57600080fd5b8101908080359060200190929190505050611b12565b604051808215151515815260200191505060405180910390f35b34801561063957600080fd5b50610642611ca9565b604051808273ffffffffffffffffffffffffffffffffffffffff1673ffffffffffffffffffffffffffffffffffffffff16815260200191505060405180910390f35b34801561069057600080fd5b506106d3600480360360208110156106a757600080fd5b81019080803573ffffffffffffffffffffffffffffffffffffffff169060200190929190505050611cce565b6040518082815260200191505060405180910390f35b3480156106f557600080fd5b506107386004803603602081101561070c57600080fd5b81019080803573ffffffffffffffffffffffffffffffffffffffff169060200190929190505050611ce6565b604051808215151515815260200191505060405180910390f35b34801561075e57600080fd5b5061078b6004803603602081101561077557600080fd5b8101908080359060200190929190505050611d06565b604051808273ffffffffffffffffffffffffffffffffffffffff1673ffffffffffffffffffffffffffffffffffffffff16815260200191505060405180910390f35b3480156107d957600080fd5b50610806600480360360208110156107f057600080fd5b8101908080359060200190929190505050611e2a565b604051808215151515815260200191505060405180910390f35b61084c6004803603602081101561083657600080fd5b8101908080359060200190929190505050611f79565b604051808215151515815260200191505060405180910390f35b34801561087257600080fd5b506108a16004803603602081101561088957600080fd5b8101908080351515906020019092919050505061254b565b005b3480156108af57600080fd5b506108b86125c3565b6040518082815260200191505060405180910390f35b3480156108da57600080fd5b50610907600480360360208110156108f157600080fd5b81019080803590602001909291905050506125c9565b604051808215151515815260200191505060405180910390f35b34801561092d57600080fd5b50610936612845565b604051808273ffffffffffffffffffffffffffffffffffffffff1673ffffffffffffffffffffffffffffffffffffffff16815260200191505060405180910390f35b6000600260009054906101000a900460ff161561099457600080fd5b60008311610a0a576040517f08c379a000000000000000000000000000000000000000000000000000000000815260040180806020018281038252601d8152602001807f4d757374207374616b65206d6f7265207468616e203020746f6b656e7300000081525060200191505060405180910390fd5b6000600460009054906101000a900473ffffffffffffffffffffffffffffffffffffffff169050838173ffffffffffffffffffffffffffffffffffffffff166370a08231336040518263ffffffff1660e01b8152600401808273ffffffffffffffffffffffffffffffffffffffff1673ffffffffffffffffffffffffffffffffffffffff16815260200191505060206040518083038186803b158015610aaf57600080fd5b505afa158015610ac3573d6000803e3d6000fd5b505050506040513d6020811015610ad957600080fd5b81019080805190602001909291905050501015610b41576040517f08c379a0000000000000000000000000000000000000000000000000000000008152600401808060200182810382526034815260200180612a386034913960400191505060405180910390fd5b838173ffffffffffffffffffffffffffffffffffffffff1663dd62ed3e33306040518363ffffffff1660e01b8152600401808373ffffffffffffffffffffffffffffffffffffffff1673ffffffffffffffffffffffffffffffffffffffff1681526020018273ffffffffffffffffffffffffffffffffffffffff1673ffffffffffffffffffffffffffffffffffffffff1681526020019250505060206040518083038186803b158015610bf357600080fd5b505afa158015610c07573d6000803e3d6000fd5b505050506040513d6020811015610c1d57600080fd5b81019080805190602001909291905050501015610c85576040517f08c379a000000000000000000000000000000000000000000000000000000000815260040180806020018281038252604c8152602001806129a0604c913960600191505060405180910390fd5b7f117f8d3f314599cb970faaf58f1fabb3d0c7eb38ca1d39d79a04840a7867814860015433604051808381526020018273ffffffffffffffffffffffffffffffffffffffff1673ffffffffffffffffffffffffffffffffffffffff1681526020019250505060405180910390a1600760008473ffffffffffffffffffffffffffffffffffffffff1673ffffffffffffffffffffffffffffffffffffffff16815260200190815260200160002060015490806001815401808255809150506001900390600052602060002001600090919091909150556001600860008573ffffffffffffffffffffffffffffffffffffffff1673ffffffffffffffffffffffffffffffffffffffff1681526020019081526020016000205401600860008573ffffffffffffffffffffffffffffffffffffffff1673ffffffffffffffffffffffffffffffffffffffff16815260200190815260200160002081905550600960003373ffffffffffffffffffffffffffffffffffffffff1673ffffffffffffffffffffffffffffffffffffffff16815260200190815260200160002060015490806001815401808255809150506001900390600052602060002001600090919091909150556001600a60003373ffffffffffffffffffffffffffffffffffffffff1673ffffffffffffffffffffffffffffffffffffffff1681526020019081526020016000205401600a60003373ffffffffffffffffffffffffffffffffffffffff1673ffffffffffffffffffffffffffffffffffffffff168152602001908152602001600020819055506040518060a001604052803373ffffffffffffffffffffffffffffffffffffffff1681526020018473ffffffffffffffffffffffffffffffffffffffff16815260200185815260200143815260200160006003811115610f2a57fe5b81525060066000600154815260200190815260200160002060008201518160000160006101000a81548173ffffffffffffffffffffffffffffffffffffffff021916908373ffffffffffffffffffffffffffffffffffffffff16021790555060208201518160010160006101000a81548173ffffffffffffffffffffffffffffffffffffffff021916908373ffffffffffffffffffffffffffffffffffffffff160217905550604082015181600201556060820151816003015560808201518160040160006101000a81548160ff0219169083600381111561100857fe5b02179055509050506001805401600181905550600191505092915050565b60015481565b336000809054906101000a900473ffffffffffffffffffffffffffffffffffffffff1673ffffffffffffffffffffffffffffffffffffffff168173ffffffffffffffffffffffffffffffffffffffff161461108657600080fd5b81600460006101000a81548173ffffffffffffffffffffffffffffffffffffffff021916908373ffffffffffffffffffffffffffffffffffffffff1602179055505050565b600960205281600052604060002081815481106110e457fe5b90600052602060002001600091509150505481565b6000600260009054906101000a900460ff161561111557600080fd5b3373ffffffffffffffffffffffffffffffffffffffff166006600084815260200190815260200160002060000160009054906101000a900473ffffffffffffffffffffffffffffffffffffffff1673ffffffffffffffffffffffffffffffffffffffff1614806111e657503373ffffffffffffffffffffffffffffffffffffffff166006600084815260200190815260200160002060010160009054906101000a900473ffffffffffffffffffffffffffffffffffffffff1673ffffffffffffffffffffffffffffffffffffffff16145b8061123d57503373ffffffffffffffffffffffffffffffffffffffff166000809054906101000a900473ffffffffffffffffffffffffffffffffffffffff1673ffffffffffffffffffffffffffffffffffffffff16145b611292576040517f08c379a00000000000000000000000000000000000000000000000000000000081526004018080602001828103825260478152602001806129376047913960600191505060405180910390fd5b6001600381111561129f57fe5b6006600084815260200190815260200160002060040160009054906101000a900460ff1660038111156112ce57fe5b14611324576040517f08c379a0000000000000000000000000000000000000000000000000000000008152600401808060200182810382526028815260200180612a9a6028913960400191505060405180910390fd5b6207e7706006600084815260200190815260200160002060030154430310158061139a57503373ffffffffffffffffffffffffffffffffffffffff166000809054906101000a900473ffffffffffffffffffffffffffffffffffffffff1673ffffffffffffffffffffffffffffffffffffffff16145b6113ef576040517f08c379a00000000000000000000000000000000000000000000000000000000081526004018080602001828103825260358152602001806128d26035913960400191505060405180910390fd5b6000600460009054906101000a900473ffffffffffffffffffffffffffffffffffffffff1690508073ffffffffffffffffffffffffffffffffffffffff1663a9059cbb6006600086815260200190815260200160002060000160009054906101000a900473ffffffffffffffffffffffffffffffffffffffff1660066000878152602001908152602001600020600201546040518363ffffffff1660e01b8152600401808373ffffffffffffffffffffffffffffffffffffffff1673ffffffffffffffffffffffffffffffffffffffff16815260200182815260200192505050602060405180830381600087803b1580156114e957600080fd5b505af11580156114fd573d6000803e3d6000fd5b505050506040513d602081101561151357600080fd5b8101908080519060200190929190505050508073ffffffffffffffffffffffffffffffffffffffff1663a9059cbb6006600086815260200190815260200160002060010160009054906101000a900473ffffffffffffffffffffffffffffffffffffffff1660066000878152602001908152602001600020600201546040518363ffffffff1660e01b8152600401808373ffffffffffffffffffffffffffffffffffffffff1673ffffffffffffffffffffffffffffffffffffffff16815260200182815260200192505050602060405180830381600087803b1580156115f857600080fd5b505af115801561160c573d6000803e3d6000fd5b505050506040513d602081101561162257600080fd5b81019080805190602001909291905050505050919050565b6007602052816000526040600020818154811061165357fe5b90600052602060002001600091509150505481565b600061167261286b565b600660008481526020019081526020016000206040518060a00160405290816000820160009054906101000a900473ffffffffffffffffffffffffffffffffffffffff1673ffffffffffffffffffffffffffffffffffffffff1673ffffffffffffffffffffffffffffffffffffffff1681526020016001820160009054906101000a900473ffffffffffffffffffffffffffffffffffffffff1673ffffffffffffffffffffffffffffffffffffffff1673ffffffffffffffffffffffffffffffffffffffff16815260200160028201548152602001600382015481526020016004820160009054906101000a900460ff16600381111561176e57fe5b600381111561177957fe5b8152505090508060400151915050919050565b600a6020528060005260406000206000915090505481565b6000336000809054906101000a900473ffffffffffffffffffffffffffffffffffffffff1673ffffffffffffffffffffffffffffffffffffffff168173ffffffffffffffffffffffffffffffffffffffff161461180057600080fd5b6002600381111561180d57fe5b6006600085815260200190815260200160002060040160009054906101000a900460ff16600381111561183c57fe5b146118af576040517f08c379a000000000000000000000000000000000000000000000000000000000815260040180806020018281038252601f8152602001807f54686973206f66666572206973206e6f7420696e2068656c642073746174650081525060200191505060405180910390fd5b60016006600085815260200190815260200160002060040160006101000a81548160ff021916908360038111156118e257fe5b02179055507f1b3bdbf33c901312359ce4697f41d618b826b4dbb23b2610956f8e690ff986418333604051808381526020018273ffffffffffffffffffffffffffffffffffffffff1673ffffffffffffffffffffffffffffffffffffffff1681526020019250505060405180910390a150919050565b600061196261286b565b600660008481526020019081526020016000206040518060a00160405290816000820160009054906101000a900473ffffffffffffffffffffffffffffffffffffffff1673ffffffffffffffffffffffffffffffffffffffff1673ffffffffffffffffffffffffffffffffffffffff1681526020016001820160009054906101000a900473ffffffffffffffffffffffffffffffffffffffff1673ffffffffffffffffffffffffffffffffffffffff1673ffffffffffffffffffffffffffffffffffffffff16815260200160028201548152602001600382015481526020016004820160009054906101000a900460ff166003811115611a5e57fe5b6003811115611a6957fe5b8152505090508060000151915050919050565b600260009054906101000a900460ff1681565b60066020528060005260406000206000915090508060000160009054906101000a900473ffffffffffffffffffffffffffffffffffffffff16908060010160009054906101000a900473ffffffffffffffffffffffffffffffffffffffff16908060020154908060030154908060040160009054906101000a900460ff16905085565b6000336000809054906101000a900473ffffffffffffffffffffffffffffffffffffffff1673ffffffffffffffffffffffffffffffffffffffff168173ffffffffffffffffffffffffffffffffffffffff1614611b6e57600080fd5b60016003811115611b7b57fe5b6006600085815260200190815260200160002060040160009054906101000a900460ff166003811115611baa57fe5b14611c00576040517f08c379a000000000000000000000000000000000000000000000000000000000815260040180806020018281038252602281526020018061297e6022913960400191505060405180910390fd5b60026006600085815260200190815260200160002060040160006101000a81548160ff02191690836003811115611c3357fe5b02179055507f43f8fbde2a3f0b3527b054bdfe5124a18126dabd4914dba86da028cc6b955e298333604051808381526020018273ffffffffffffffffffffffffffffffffffffffff1673ffffffffffffffffffffffffffffffffffffffff1681526020019250505060405180910390a150919050565b6000809054906101000a900473ffffffffffffffffffffffffffffffffffffffff1681565b60086020528060005260406000206000915090505481565b60056020528060005260406000206000915054906101000a900460ff1681565b6000611d1061286b565b600660008481526020019081526020016000206040518060a00160405290816000820160009054906101000a900473ffffffffffffffffffffffffffffffffffffffff1673ffffffffffffffffffffffffffffffffffffffff1673ffffffffffffffffffffffffffffffffffffffff1681526020016001820160009054906101000a900473ffffffffffffffffffffffffffffffffffffffff1673ffffffffffffffffffffffffffffffffffffffff1673ffffffffffffffffffffffffffffffffffffffff16815260200160028201548152602001600382015481526020016004820160009054906101000a900460ff166003811115611e0c57fe5b6003811115611e1757fe5b8152505090508060200151915050919050565b6000611e3461286b565b600660008481526020019081526020016000206040518060a00160405290816000820160009054906101000a900473ffffffffffffffffffffffffffffffffffffffff1673ffffffffffffffffffffffffffffffffffffffff1673ffffffffffffffffffffffffffffffffffffffff1681526020016001820160009054906101000a900473ffffffffffffffffffffffffffffffffffffffff1673ffffffffffffffffffffffffffffffffffffffff1673ffffffffffffffffffffffffffffffffffffffff16815260200160028201548152602001600382015481526020016004820160009054906101000a900460ff166003811115611f3057fe5b6003811115611f3b57fe5b81525050905060006003811115611f4e57fe5b81608001516003811115611f5e57fe5b1415611f6e576001915050611f74565b60009150505b919050565b6000600260009054906101000a900460ff1615611f9557600080fd5b600073ffffffffffffffffffffffffffffffffffffffff166006600084815260200190815260200160002060000160009054906101000a900473ffffffffffffffffffffffffffffffffffffffff1673ffffffffffffffffffffffffffffffffffffffff161415612051576040517f08c379a0000000000000000000000000000000000000000000000000000000008152600401808060200182810382526024815260200180612a146024913960400191505060405180910390fd5b6000600381111561205e57fe5b6006600084815260200190815260200160002060040160009054906101000a900460ff16600381111561208d57fe5b14612100576040517f08c379a00000000000000000000000000000000000000000000000000000000081526004018080602001828103825260148152602001807f4f66666572206d7573742062652061637469766500000000000000000000000081525060200191505060405180910390fd5b60016006600084815260200190815260200160002060040160006101000a81548160ff0219169083600381111561213357fe5b02179055503373ffffffffffffffffffffffffffffffffffffffff166006600084815260200190815260200160002060010160009054906101000a900473ffffffffffffffffffffffffffffffffffffffff1673ffffffffffffffffffffffffffffffffffffffff16146121f2576040517f08c379a00000000000000000000000000000000000000000000000000000000081526004018080602001828103825260308152602001806129076030913960400191505060405180910390fd5b6000600460009054906101000a900473ffffffffffffffffffffffffffffffffffffffff1690506000600660008581526020019081526020016000206002015411156124bf578073ffffffffffffffffffffffffffffffffffffffff166323b872dd6006600086815260200190815260200160002060000160009054906101000a900473ffffffffffffffffffffffffffffffffffffffff163060066000888152602001908152602001600020600201546040518463ffffffff1660e01b8152600401808473ffffffffffffffffffffffffffffffffffffffff1673ffffffffffffffffffffffffffffffffffffffff1681526020018373ffffffffffffffffffffffffffffffffffffffff1673ffffffffffffffffffffffffffffffffffffffff1681526020018281526020019350505050602060405180830381600087803b15801561233f57600080fd5b505af1158015612353573d6000803e3d6000fd5b505050506040513d602081101561236957600080fd5b8101908080519060200190929190505050508073ffffffffffffffffffffffffffffffffffffffff166323b872dd6006600086815260200190815260200160002060010160009054906101000a900473ffffffffffffffffffffffffffffffffffffffff163060066000888152602001908152602001600020600201546040518463ffffffff1660e01b8152600401808473ffffffffffffffffffffffffffffffffffffffff1673ffffffffffffffffffffffffffffffffffffffff1681526020018373ffffffffffffffffffffffffffffffffffffffff1673ffffffffffffffffffffffffffffffffffffffff1681526020018281526020019350505050602060405180830381600087803b15801561248257600080fd5b505af1158015612496573d6000803e3d6000fd5b505050506040513d60208110156124ac57600080fd5b8101908080519060200190929190505050505b4360066000858152602001908152602001600020600301819055507f6763bb58d129888ef436ff602ea74ab468fd85e3d58ca5c556e2bbf259a558fa8333604051808381526020018273ffffffffffffffffffffffffffffffffffffffff1673ffffffffffffffffffffffffffffffffffffffff1681526020019250505060405180910390a150919050565b336000809054906101000a900473ffffffffffffffffffffffffffffffffffffffff1673ffffffffffffffffffffffffffffffffffffffff168173ffffffffffffffffffffffffffffffffffffffff16146125a557600080fd5b81600260006101000a81548160ff0219169083151502179055505050565b60035481565b6000600260009054906101000a900460ff16156125e557600080fd5b3373ffffffffffffffffffffffffffffffffffffffff166006600084815260200190815260200160002060000160009054906101000a900473ffffffffffffffffffffffffffffffffffffffff1673ffffffffffffffffffffffffffffffffffffffff1614806126b657503373ffffffffffffffffffffffffffffffffffffffff166006600084815260200190815260200160002060010160009054906101000a900473ffffffffffffffffffffffffffffffffffffffff1673ffffffffffffffffffffffffffffffffffffffff16145b61270b576040517f08c379a000000000000000000000000000000000000000000000000000000000815260040180806020018281038252602e815260200180612a6c602e913960400191505060405180910390fd5b6000600381111561271857fe5b6006600084815260200190815260200160002060040160009054906101000a900460ff16600381111561274757fe5b1461279d576040517f08c379a00000000000000000000000000000000000000000000000000000000081526004018080602001828103825260288152602001806129ec6028913960400191505060405180910390fd5b60036006600084815260200190815260200160002060040160006101000a81548160ff021916908360038111156127d057fe5b02179055507fa1995f8c2b60cf6837bebd94e80c01f0b34a8ad9123fb314fa4ddb08ef148b618233604051808381526020018273ffffffffffffffffffffffffffffffffffffffff1673ffffffffffffffffffffffffffffffffffffffff1681526020019250505060405180910390a1919050565b600460009054906101000a900473ffffffffffffffffffffffffffffffffffffffff1681565b6040518060a00160405280600073ffffffffffffffffffffffffffffffffffffffff168152602001600073ffffffffffffffffffffffffffffffffffffffff1681526020016000815260200160008152602001600060038111156128cb57fe5b8152509056fe416e206f666665722063616e206f6e6c792062652066696e616c697a65642039302064617973206166746572206372656174696f6e4f666665722063616e206f6e6c7920626520616363657074656420627920696e74656e64656420726563697069656e744f6e6c7920746865206f6666657265722c207461726765742c206f7220636f6e7472616374206f776e65722063616e20696e69746961746520612066696e616c697a6174696f6e54686973206f66666572206973206e6f7420696e2070656e64696e672073746174654f66666572657220686173206e6f7420676976656e2074686520636f6e747261637420616c6c6f77616e636520746f207370656e6420656e6f756768206f6620746865697220746f6b656e7354686973206f6666657220697320616c726561647920636c6f736564206f722061636365707465644f666665726572206d757374206e6f7420626520746865206275726e20616464726573734f66666572657220646f6573206e6f742068617665206173206d616e7920746f6b656e732061732074686579206f6666657265644f6e6c7920746865206f666665726572206f72207461726765742063616e2063616e63656c20616e206f666665725374617465206d75737420626520696e2070656e64696e6720746f2062652066696e616c697a6564a26469706673582212208dfd042145c11f06cfe830bb229ca37565edbbef877131e95e6f22b6663fe36e64736f6c63430006020033",
  "source": "pragma solidity ^0.6.0;\r\n\r\nimport \"../openzeppelin-contracts/contracts/token/ERC20/ERC20.sol\";\r\n\r\ncontract Padswap {\r\n\r\n    address payable public owner;\r\n\r\n    uint public offerCount;\r\n    bool public stopped = false;\r\n    uint public fee;\r\n    address public stakedTokenAddress;\r\n\r\n    struct SwapOffer {\r\n        address payable offerer;\r\n        address payable asker;\r\n        uint offerVal;\r\n        uint blockNum;\r\n        State state;\r\n    }\r\n\r\n    enum State {Active, Pending, Held, Closed}\r\n    mapping(address => bool) public approvedERC20;\r\n    mapping(uint => SwapOffer) public offers;\r\n    mapping(address => uint[]) public offersByAddress; \r\n    mapping(address => uint) public offerCountByAddress;\r\n    mapping(address => uint[]) public offersCreatedByAddress; \r\n    mapping(address => uint) public offersCreatedCountByAddress;\r\n\r\n    event LogOfferAdded(uint offerAddedId, address  userAdded);\r\n    event LogOfferAccepted(uint offerAcceptedId, address userAccepted);\r\n    event LogOfferCanceled(uint offerCanceledId, address userCanceled);\r\n    event LogOfferHeld(uint offerCanceledId, address userCanceled);\r\n    event LogOfferUnheld(uint offerCanceledId, address userCanceled);\r\n\r\n    modifier onlyOwner (address _address) {require(_address == owner); _;}\r\n    modifier stopInEmergency {require(!stopped); _;}\r\n    modifier onlyInEmergency {require(stopped); _;}\r\n\r\n    constructor() public {\r\n       owner = msg.sender;\r\n       offerCount = 0;\r\n    }\r\n\r\n    /// @dev Sets circuit breaker value.\r\n    function setStopped(bool _stopped) public onlyOwner(msg.sender) {\r\n        stopped = _stopped;\r\n    }\r\n\r\n\r\n    /// @dev Sets the token address of the token that needs to be staked.\r\n    function setToken(address _addy) public onlyOwner(msg.sender) {\r\n        stakedTokenAddress = _addy;\r\n    }\r\n\r\n    /// @dev Creates an NFT trade offer in the Swap 'order book'.\r\n    /// @return true if successful\r\n    function addOffer(uint _offerVal,  address payable _targetAddress) \r\n                    public payable stopInEmergency() returns (bool) {\r\n\r\n        require(_offerVal > 0, \"Must stake more than 0 tokens\");\r\n        ERC20 con = ERC20(stakedTokenAddress);\r\n        require(con.balanceOf(msg.sender) >= _offerVal, \"Offerer does not have as many tokens as they offered\");\r\n        require(con.allowance(msg.sender, address(this)) >= _offerVal, \"Offerer has not given the contract allowance to spend enough of their tokens\");\r\n\r\n        emit LogOfferAdded(offerCount, msg.sender);\r\n        offersByAddress[_targetAddress].push(offerCount);\r\n        offerCountByAddress[_targetAddress] = offerCountByAddress[_targetAddress]+1;\r\n        offersCreatedByAddress[msg.sender].push(offerCount);\r\n        offersCreatedCountByAddress[msg.sender] = offersCreatedCountByAddress[msg.sender]+1;\r\n        offers[offerCount] = SwapOffer({offerer: msg.sender\r\n            , asker: _targetAddress\r\n            , offerVal: _offerVal\r\n            , blockNum: block.number\r\n            , state: State.Active});\r\n        offerCount = offerCount + 1;\r\n        \r\n        return true;\r\n    }\r\n\r\n    /// @dev Accepts and executes an already existing offer in the 'order book'.\r\n    function acceptOffer(uint _offerId) public payable stopInEmergency() returns (bool) {\r\n        require(offers[_offerId].offerer != 0x0000000000000000000000000000000000000000, \"Offerer must not be the burn address\");\r\n        require(offers[_offerId].state == State.Active, \"Offer must be active\");\r\n        offers[_offerId].state = State.Pending; \r\n        require(offers[_offerId].asker == msg.sender, \"Offer can only be accepted by intended recipient\");\r\n\r\n\r\n        ERC20 con = ERC20(stakedTokenAddress);\r\n\r\n        if(offers[_offerId].offerVal > 0) {\r\n            con.transferFrom(offers[_offerId].offerer, address(this), offers[_offerId].offerVal);\r\n            con.transferFrom(offers[_offerId].asker, address(this), offers[_offerId].offerVal);\r\n        }\r\n\r\n        offers[_offerId].blockNum = block.number;\r\n\r\n        emit LogOfferAccepted(_offerId, msg.sender);\r\n    }\r\n\r\n    /// @dev Cancels an offer by setting the state to Closed.\r\n    function cancelOffer(uint _offerId) public stopInEmergency() returns (bool) {\r\n        require(offers[_offerId].offerer == msg.sender || offers[_offerId].asker == msg.sender, \"Only the offerer or target can cancel an offer\");\r\n        require(offers[_offerId].state == State.Active, \"This offer is already closed or accepted\");\r\n        offers[_offerId].state = State.Closed;\r\n        emit LogOfferCanceled(_offerId, msg.sender);\r\n    }\r\n\r\n    /// @dev Puts a hold on a pending offer if there is currently a snapshot vote being conducted\r\n    function holdOffer(uint _offerId) public onlyOwner(msg.sender) returns (bool) {\r\n        require(offers[_offerId].state == State.Pending, \"This offer is not in pending state\");\r\n        offers[_offerId].state = State.Held;\r\n        emit LogOfferHeld(_offerId, msg.sender);\r\n    }\r\n\r\n    /// @dev Removes a hold on a pending offer if the snapshot vote has concluded\r\n    function unholdOffer(uint _offerId) public onlyOwner(msg.sender) returns (bool) {\r\n        require(offers[_offerId].state == State.Held, \"This offer is not in held state\");\r\n        offers[_offerId].state = State.Pending;\r\n        emit LogOfferUnheld(_offerId, msg.sender);\r\n    }\r\n\r\n\r\n    /// @dev Accepts and executes an already existing offer in the 'order book'.\r\n    function finalizeOffer(uint _offerId) public stopInEmergency() returns (bool) {\r\n        require(offers[_offerId].offerer == msg.sender || offers[_offerId].asker == msg.sender || owner == msg.sender, \"Only the offerer, target, or contract owner can initiate a finalization\");\r\n        require(offers[_offerId].state == State.Pending, \"State must be in pending to be finalized\");\r\n        require(block.number - offers[_offerId].blockNum >= 518000 || owner == msg.sender , \"An offer can only be finalized 90 days after creation\");\r\n        ERC20 con = ERC20(stakedTokenAddress);\r\n        con.transfer( offers[_offerId].offerer, offers[_offerId].offerVal);\r\n        con.transfer( offers[_offerId].asker, offers[_offerId].offerVal);\r\n    }\r\n\r\n    /// @dev returns true or false (corresponding to whether offer is active or not) given an offer ID.\r\n    /// @return true if active and acceptable, false if closed\r\n    function getOfferState(uint _offerId) public view returns (bool) {\r\n        SwapOffer memory off = offers[_offerId];\r\n        if (off.state == State.Active) {\r\n            return true;\r\n        } else {\r\n            return false;\r\n        }\r\n    }\r\n\r\n    /// @dev returns eth offer in wei for a given offer.\r\n    /// @return eth amount in wei that the user who created the trade is offering.\r\n    function getOfferOffVal(uint _offerId) public view returns (uint) {\r\n        SwapOffer memory off = offers[_offerId];\r\n        return off.offerVal;\r\n    }\r\n\r\n    /// @dev returns eth offer in wei for a given offer.\r\n    /// @return eth amount in wei that the user who created the trade is offering.\r\n    function getOfferAsker(uint _offerId) public view returns (address) {\r\n        SwapOffer memory off = offers[_offerId];\r\n        return off.asker;\r\n    }\r\n\r\n    /// @dev returns eth offer in wei for a given offer.\r\n    /// @return eth amount in wei that the user who created the trade is offering.\r\n    function getOfferOfferer(uint _offerId) public view returns (address) {\r\n        SwapOffer memory off = offers[_offerId];\r\n        return off.offerer;\r\n    }\r\n\r\n}",
  "sourcePath": "C:/Users/rober/Code/Consensys/padswap/contracts/Padswap.sol",
  "compiler": {
    "name": "solc",
    "version": "0.6.2+commit.bacdbe57.Emscripten.clang"
  },
  "schemaVersion": "3.2.5",
  "updatedAt": "2021-09-24T17:35:48.248Z",
  "networkType": "ethereum",
  "devdoc": {
    "methods": {
      "acceptOffer(uint256)": {
        "details": "Accepts and executes an already existing offer in the 'order book'."
      },
      "addOffer(uint256,address)": {
        "details": "Creates an NFT trade offer in the Swap 'order book'.",
        "returns": {
          "_0": "true if successful"
        }
      },
      "cancelOffer(uint256)": {
        "details": "Cancels an offer by setting the state to Closed."
      },
      "finalizeOffer(uint256)": {
        "details": "Accepts and executes an already existing offer in the 'order book'."
      },
      "getOfferAsker(uint256)": {
        "details": "returns eth offer in wei for a given offer.",
        "returns": {
          "_0": "eth amount in wei that the user who created the trade is offering."
        }
      },
      "getOfferOffVal(uint256)": {
        "details": "returns eth offer in wei for a given offer.",
        "returns": {
          "_0": "eth amount in wei that the user who created the trade is offering."
        }
      },
      "getOfferOfferer(uint256)": {
        "details": "returns eth offer in wei for a given offer.",
        "returns": {
          "_0": "eth amount in wei that the user who created the trade is offering."
        }
      },
      "getOfferState(uint256)": {
        "details": "returns true or false (corresponding to whether offer is active or not) given an offer ID.",
        "returns": {
          "_0": "true if active and acceptable, false if closed"
        }
      },
      "holdOffer(uint256)": {
        "details": "Puts a hold on a pending offer if there is currently a snapshot vote being conducted"
      },
      "setStopped(bool)": {
        "details": "Sets circuit breaker value."
      },
      "setToken(address)": {
        "details": "Sets the token address of the token that needs to be staked."
      },
      "unholdOffer(uint256)": {
        "details": "Removes a hold on a pending offer if the snapshot vote has concluded"
      }
    }
  },
  "userdoc": {
    "methods": {}
  }
}