{
  "contractName": "Swap",
  "abi": [
    {
      "inputs": [],
      "stateMutability": "nonpayable",
      "type": "constructor"
    },
    {
      "anonymous": false,
      "inputs": [
        {
          "indexed": false,
          "internalType": "address",
          "name": "contractAddressApproved",
          "type": "address"
        }
      ],
      "name": "LogNFTApproval",
      "type": "event"
    },
    {
      "anonymous": false,
      "inputs": [
        {
          "indexed": false,
          "internalType": "address",
          "name": "contractAddressRemoved",
          "type": "address"
        }
      ],
      "name": "LogNFTRemoval",
      "type": "event"
    },
    {
      "anonymous": false,
      "inputs": [
        {
          "indexed": false,
          "internalType": "uint256",
          "name": "offerAcceptedId",
          "type": "uint256"
        }
      ],
      "name": "LogOfferAccepted",
      "type": "event"
    },
    {
      "anonymous": false,
      "inputs": [
        {
          "indexed": false,
          "internalType": "uint256",
          "name": "offerAddedId",
          "type": "uint256"
        }
      ],
      "name": "LogOfferAdded",
      "type": "event"
    },
    {
      "inputs": [
        {
          "internalType": "address",
          "name": "",
          "type": "address"
        }
      ],
      "name": "approvedERC721",
      "outputs": [
        {
          "internalType": "bool",
          "name": "",
          "type": "bool"
        }
      ],
      "stateMutability": "view",
      "type": "function",
      "constant": true
    },
    {
      "inputs": [],
      "name": "offerCount",
      "outputs": [
        {
          "internalType": "uint256",
          "name": "",
          "type": "uint256"
        }
      ],
      "stateMutability": "view",
      "type": "function",
      "constant": true
    },
    {
      "inputs": [
        {
          "internalType": "address",
          "name": "",
          "type": "address"
        }
      ],
      "name": "offerCountByAddress",
      "outputs": [
        {
          "internalType": "uint256",
          "name": "",
          "type": "uint256"
        }
      ],
      "stateMutability": "view",
      "type": "function",
      "constant": true
    },
    {
      "inputs": [
        {
          "internalType": "uint256",
          "name": "",
          "type": "uint256"
        }
      ],
      "name": "offers",
      "outputs": [
        {
          "internalType": "address payable",
          "name": "offerer",
          "type": "address"
        },
        {
          "internalType": "address payable",
          "name": "asker",
          "type": "address"
        },
        {
          "internalType": "uint256",
          "name": "offerLength",
          "type": "uint256"
        },
        {
          "internalType": "uint256",
          "name": "askLength",
          "type": "uint256"
        },
        {
          "internalType": "uint256",
          "name": "offerVal",
          "type": "uint256"
        },
        {
          "internalType": "uint256",
          "name": "askVal",
          "type": "uint256"
        },
        {
          "internalType": "enum Swap.State",
          "name": "state",
          "type": "uint8"
        }
      ],
      "stateMutability": "view",
      "type": "function",
      "constant": true
    },
    {
      "inputs": [
        {
          "internalType": "address",
          "name": "",
          "type": "address"
        },
        {
          "internalType": "uint256",
          "name": "",
          "type": "uint256"
        }
      ],
      "name": "offersByAddress",
      "outputs": [
        {
          "internalType": "uint256",
          "name": "",
          "type": "uint256"
        }
      ],
      "stateMutability": "view",
      "type": "function",
      "constant": true
    },
    {
      "inputs": [
        {
          "internalType": "address",
          "name": "",
          "type": "address"
        },
        {
          "internalType": "uint256",
          "name": "",
          "type": "uint256"
        }
      ],
      "name": "offersCreatedByAddress",
      "outputs": [
        {
          "internalType": "uint256",
          "name": "",
          "type": "uint256"
        }
      ],
      "stateMutability": "view",
      "type": "function",
      "constant": true
    },
    {
      "inputs": [
        {
          "internalType": "address",
          "name": "",
          "type": "address"
        }
      ],
      "name": "offersCreatedCountByAddress",
      "outputs": [
        {
          "internalType": "uint256",
          "name": "",
          "type": "uint256"
        }
      ],
      "stateMutability": "view",
      "type": "function",
      "constant": true
    },
    {
      "inputs": [],
      "name": "owner",
      "outputs": [
        {
          "internalType": "address",
          "name": "",
          "type": "address"
        }
      ],
      "stateMutability": "view",
      "type": "function",
      "constant": true
    },
    {
      "inputs": [
        {
          "internalType": "address",
          "name": "_NFTContract",
          "type": "address"
        }
      ],
      "name": "approveNFT",
      "outputs": [],
      "stateMutability": "nonpayable",
      "type": "function"
    },
    {
      "inputs": [
        {
          "internalType": "address",
          "name": "_NFTContract",
          "type": "address"
        }
      ],
      "name": "removeNFT",
      "outputs": [],
      "stateMutability": "nonpayable",
      "type": "function"
    },
    {
      "inputs": [
        {
          "internalType": "uint256[]",
          "name": "_offer",
          "type": "uint256[]"
        },
        {
          "internalType": "address[]",
          "name": "_offerContract",
          "type": "address[]"
        },
        {
          "internalType": "uint256[]",
          "name": "_ask",
          "type": "uint256[]"
        },
        {
          "internalType": "address[]",
          "name": "_askContract",
          "type": "address[]"
        },
        {
          "internalType": "uint256",
          "name": "_offerVal",
          "type": "uint256"
        },
        {
          "internalType": "uint256",
          "name": "_askVal",
          "type": "uint256"
        },
        {
          "internalType": "address payable",
          "name": "_targetAddress",
          "type": "address"
        }
      ],
      "name": "addOffer",
      "outputs": [
        {
          "internalType": "bool",
          "name": "",
          "type": "bool"
        }
      ],
      "stateMutability": "payable",
      "type": "function",
      "payable": true
    },
    {
      "inputs": [
        {
          "internalType": "uint256",
          "name": "_offerId",
          "type": "uint256"
        }
      ],
      "name": "acceptOffer",
      "outputs": [
        {
          "internalType": "bool",
          "name": "",
          "type": "bool"
        }
      ],
      "stateMutability": "payable",
      "type": "function",
      "payable": true
    },
    {
      "inputs": [
        {
          "internalType": "uint256",
          "name": "_offerId",
          "type": "uint256"
        }
      ],
      "name": "cancelOffer",
      "outputs": [
        {
          "internalType": "bool",
          "name": "",
          "type": "bool"
        }
      ],
      "stateMutability": "nonpayable",
      "type": "function"
    },
    {
      "inputs": [
        {
          "internalType": "uint256",
          "name": "_offerId",
          "type": "uint256"
        },
        {
          "internalType": "uint256",
          "name": "_index",
          "type": "uint256"
        }
      ],
      "name": "getOfferFromOffer",
      "outputs": [
        {
          "internalType": "uint256",
          "name": "",
          "type": "uint256"
        }
      ],
      "stateMutability": "view",
      "type": "function",
      "constant": true
    },
    {
      "inputs": [
        {
          "internalType": "uint256",
          "name": "_offerId",
          "type": "uint256"
        },
        {
          "internalType": "uint256",
          "name": "_index",
          "type": "uint256"
        }
      ],
      "name": "getOfferFromAsk",
      "outputs": [
        {
          "internalType": "uint256",
          "name": "",
          "type": "uint256"
        }
      ],
      "stateMutability": "view",
      "type": "function",
      "constant": true
    },
    {
      "inputs": [
        {
          "internalType": "uint256",
          "name": "_offerId",
          "type": "uint256"
        }
      ],
      "name": "getOfferLengthFromOffer",
      "outputs": [
        {
          "internalType": "uint256",
          "name": "",
          "type": "uint256"
        }
      ],
      "stateMutability": "view",
      "type": "function",
      "constant": true
    },
    {
      "inputs": [
        {
          "internalType": "uint256",
          "name": "_offerId",
          "type": "uint256"
        }
      ],
      "name": "getOfferLengthFromAsk",
      "outputs": [
        {
          "internalType": "uint256",
          "name": "",
          "type": "uint256"
        }
      ],
      "stateMutability": "view",
      "type": "function",
      "constant": true
    },
    {
      "inputs": [
        {
          "internalType": "uint256",
          "name": "_offerId",
          "type": "uint256"
        }
      ],
      "name": "getOfferState",
      "outputs": [
        {
          "internalType": "bool",
          "name": "",
          "type": "bool"
        }
      ],
      "stateMutability": "view",
      "type": "function",
      "constant": true
    }
  ],
  "bytecode": "0x608060405234801561001057600080fd5b50336000806101000a81548173ffffffffffffffffffffffffffffffffffffffff021916908373ffffffffffffffffffffffffffffffffffffffff160217905550600060018190555061366f806100686000396000f3fe6080604052600436106101095760003560e01c80636656d73611610095578063ba1c407211610064578063ba1c407214610619578063c49e5b5e14610672578063c815729d146106c5578063ee9ee61f1461070b578063ef706adf146109cb57610109565b80636656d736146104155780638a72ea6a1461047e5780638da5cb5b1461055d578063986a2588146105b457610109565b80632240ba77116100dc5780632240ba771461022a57806323540450146102995780633505792e146102e85780633ee037e714610341578063517a72cf146103b057610109565b80630ed642d01461010e5780631115c24d1461015f57806311e9a95e1461018a57806317cc54f7146101db575b600080fd5b34801561011a57600080fd5b5061015d6004803603602081101561013157600080fd5b81019080803573ffffffffffffffffffffffffffffffffffffffff169060200190929190505050610a1e565b005b34801561016b57600080fd5b50610174610b37565b6040518082815260200191505060405180910390f35b34801561019657600080fd5b506101d9600480360360208110156101ad57600080fd5b81019080803573ffffffffffffffffffffffffffffffffffffffff169060200190929190505050610b3d565b005b3480156101e757600080fd5b50610214600480360360208110156101fe57600080fd5b8101908080359060200190929190505050610c56565b6040518082815260200191505060405180910390f35b34801561023657600080fd5b506102836004803603604081101561024d57600080fd5b81019080803573ffffffffffffffffffffffffffffffffffffffff16906020019092919080359060200190929190505050610f5b565b6040518082815260200191505060405180910390f35b3480156102a557600080fd5b506102d2600480360360208110156102bc57600080fd5b8101908080359060200190929190505050610f89565b6040518082815260200191505060405180910390f35b3480156102f457600080fd5b5061032b6004803603604081101561030b57600080fd5b81019080803590602001909291908035906020019092919050505061128e565b6040518082815260200191505060405180910390f35b34801561034d57600080fd5b5061039a6004803603604081101561036457600080fd5b81019080803573ffffffffffffffffffffffffffffffffffffffff169060200190929190803590602001909291905050506115a7565b6040518082815260200191505060405180910390f35b3480156103bc57600080fd5b506103ff600480360360208110156103d357600080fd5b81019080803573ffffffffffffffffffffffffffffffffffffffff1690602001909291905050506115d5565b6040518082815260200191505060405180910390f35b34801561042157600080fd5b506104646004803603602081101561043857600080fd5b81019080803573ffffffffffffffffffffffffffffffffffffffff1690602001909291905050506115ed565b604051808215151515815260200191505060405180910390f35b34801561048a57600080fd5b506104b7600480360360208110156104a157600080fd5b810190808035906020019092919050505061160d565b604051808873ffffffffffffffffffffffffffffffffffffffff1673ffffffffffffffffffffffffffffffffffffffff1681526020018773ffffffffffffffffffffffffffffffffffffffff1673ffffffffffffffffffffffffffffffffffffffff16815260200186815260200185815260200184815260200183815260200182600181111561054357fe5b60ff16815260200197505050505050505060405180910390f35b34801561056957600080fd5b5061057261169c565b604051808273ffffffffffffffffffffffffffffffffffffffff1673ffffffffffffffffffffffffffffffffffffffff16815260200191505060405180910390f35b3480156105c057600080fd5b50610603600480360360208110156105d757600080fd5b81019080803573ffffffffffffffffffffffffffffffffffffffff1690602001909291905050506116c1565b6040518082815260200191505060405180910390f35b34801561062557600080fd5b5061065c6004803603604081101561063c57600080fd5b8101908080359060200190929190803590602001909291905050506116d9565b6040518082815260200191505060405180910390f35b34801561067e57600080fd5b506106ab6004803603602081101561069557600080fd5b81019080803590602001909291905050506119f2565b604051808215151515815260200191505060405180910390f35b6106f1600480360360208110156106db57600080fd5b8101908080359060200190929190505050611d23565b604051808215151515815260200191505060405180910390f35b6109b1600480360360e081101561072157600080fd5b810190808035906020019064010000000081111561073e57600080fd5b82018360208201111561075057600080fd5b8035906020019184602083028401116401000000008311171561077257600080fd5b919080806020026020016040519081016040528093929190818152602001838360200280828437600081840152601f19601f820116905080830192505050505050509192919290803590602001906401000000008111156107d257600080fd5b8201836020820111156107e457600080fd5b8035906020019184602083028401116401000000008311171561080657600080fd5b919080806020026020016040519081016040528093929190818152602001838360200280828437600081840152601f19601f8201169050808301925050505050505091929192908035906020019064010000000081111561086657600080fd5b82018360208201111561087857600080fd5b8035906020019184602083028401116401000000008311171561089a57600080fd5b919080806020026020016040519081016040528093929190818152602001838360200280828437600081840152601f19601f820116905080830192505050505050509192919290803590602001906401000000008111156108fa57600080fd5b82018360208201111561090c57600080fd5b8035906020019184602083028401116401000000008311171561092e57600080fd5b919080806020026020016040519081016040528093929190818152602001838360200280828437600081840152601f19601f8201169050808301925050505050505091929192908035906020019092919080359060200190929190803573ffffffffffffffffffffffffffffffffffffffff1690602001909291905050506128f7565b604051808215151515815260200191505060405180910390f35b3480156109d757600080fd5b50610a04600480360360208110156109ee57600080fd5b8101908080359060200190929190505050613146565b604051808215151515815260200191505060405180910390f35b336000809054906101000a900473ffffffffffffffffffffffffffffffffffffffff1673ffffffffffffffffffffffffffffffffffffffff168173ffffffffffffffffffffffffffffffffffffffff1614610a7857600080fd5b7febfe7b89bc8879c540005795f5110bc5f731b2c00294c47b1247f41bcb1bd42782604051808273ffffffffffffffffffffffffffffffffffffffff1673ffffffffffffffffffffffffffffffffffffffff16815260200191505060405180910390a16000600260008473ffffffffffffffffffffffffffffffffffffffff1673ffffffffffffffffffffffffffffffffffffffff16815260200190815260200160002060006101000a81548160ff0219169083151502179055505050565b60015481565b336000809054906101000a900473ffffffffffffffffffffffffffffffffffffffff1673ffffffffffffffffffffffffffffffffffffffff168173ffffffffffffffffffffffffffffffffffffffff1614610b9757600080fd5b7f51a951a433bd62c9bd3d80facce59480479f8fcf925c79971019eb97f628585082604051808273ffffffffffffffffffffffffffffffffffffffff1673ffffffffffffffffffffffffffffffffffffffff16815260200191505060405180910390a16001600260008473ffffffffffffffffffffffffffffffffffffffff1673ffffffffffffffffffffffffffffffffffffffff16815260200190815260200160002060006101000a81548160ff0219169083151502179055505050565b6000610c6061323f565b60036000848152602001908152602001600020604051806101600160405290816000820160009054906101000a900473ffffffffffffffffffffffffffffffffffffffff1673ffffffffffffffffffffffffffffffffffffffff1673ffffffffffffffffffffffffffffffffffffffff1681526020016001820160009054906101000a900473ffffffffffffffffffffffffffffffffffffffff1673ffffffffffffffffffffffffffffffffffffffff1673ffffffffffffffffffffffffffffffffffffffff16815260200160028201805480602002602001604051908101604052809291908181526020018280548015610d7a57602002820191906000526020600020905b815481526020019060010190808311610d66575b5050505050815260200160038201805480602002602001604051908101604052809291908181526020018280548015610dd257602002820191906000526020600020905b815481526020019060010190808311610dbe575b5050505050815260200160048201805480602002602001604051908101604052809291908181526020018280548015610e6057602002820191906000526020600020905b8160009054906101000a900473ffffffffffffffffffffffffffffffffffffffff1673ffffffffffffffffffffffffffffffffffffffff1681526020019060010190808311610e16575b5050505050815260200160058201805480602002602001604051908101604052809291908181526020018280548015610eee57602002820191906000526020600020905b8160009054906101000a900473ffffffffffffffffffffffffffffffffffffffff1673ffffffffffffffffffffffffffffffffffffffff1681526020019060010190808311610ea4575b5050505050815260200160068201548152602001600782015481526020016008820154815260200160098201548152602001600a820160009054906101000a900460ff166001811115610f3d57fe5b6001811115610f4857fe5b8152505090508060c00151915050919050565b60066020528160005260406000208181548110610f7457fe5b90600052602060002001600091509150505481565b6000610f9361323f565b60036000848152602001908152602001600020604051806101600160405290816000820160009054906101000a900473ffffffffffffffffffffffffffffffffffffffff1673ffffffffffffffffffffffffffffffffffffffff1673ffffffffffffffffffffffffffffffffffffffff1681526020016001820160009054906101000a900473ffffffffffffffffffffffffffffffffffffffff1673ffffffffffffffffffffffffffffffffffffffff1673ffffffffffffffffffffffffffffffffffffffff168152602001600282018054806020026020016040519081016040528092919081815260200182805480156110ad57602002820191906000526020600020905b815481526020019060010190808311611099575b505050505081526020016003820180548060200260200160405190810160405280929190818152602001828054801561110557602002820191906000526020600020905b8154815260200190600101908083116110f1575b505050505081526020016004820180548060200260200160405190810160405280929190818152602001828054801561119357602002820191906000526020600020905b8160009054906101000a900473ffffffffffffffffffffffffffffffffffffffff1673ffffffffffffffffffffffffffffffffffffffff1681526020019060010190808311611149575b505050505081526020016005820180548060200260200160405190810160405280929190818152602001828054801561122157602002820191906000526020600020905b8160009054906101000a900473ffffffffffffffffffffffffffffffffffffffff1673ffffffffffffffffffffffffffffffffffffffff16815260200190600101908083116111d7575b5050505050815260200160068201548152602001600782015481526020016008820154815260200160098201548152602001600a820160009054906101000a900460ff16600181111561127057fe5b600181111561127b57fe5b8152505090508060e00151915050919050565b600061129861323f565b60036000858152602001908152602001600020604051806101600160405290816000820160009054906101000a900473ffffffffffffffffffffffffffffffffffffffff1673ffffffffffffffffffffffffffffffffffffffff1673ffffffffffffffffffffffffffffffffffffffff1681526020016001820160009054906101000a900473ffffffffffffffffffffffffffffffffffffffff1673ffffffffffffffffffffffffffffffffffffffff1673ffffffffffffffffffffffffffffffffffffffff168152602001600282018054806020026020016040519081016040528092919081815260200182805480156113b257602002820191906000526020600020905b81548152602001906001019080831161139e575b505050505081526020016003820180548060200260200160405190810160405280929190818152602001828054801561140a57602002820191906000526020600020905b8154815260200190600101908083116113f6575b505050505081526020016004820180548060200260200160405190810160405280929190818152602001828054801561149857602002820191906000526020600020905b8160009054906101000a900473ffffffffffffffffffffffffffffffffffffffff1673ffffffffffffffffffffffffffffffffffffffff168152602001906001019080831161144e575b505050505081526020016005820180548060200260200160405190810160405280929190818152602001828054801561152657602002820191906000526020600020905b8160009054906101000a900473ffffffffffffffffffffffffffffffffffffffff1673ffffffffffffffffffffffffffffffffffffffff16815260200190600101908083116114dc575b5050505050815260200160068201548152602001600782015481526020016008820154815260200160098201548152602001600a820160009054906101000a900460ff16600181111561157557fe5b600181111561158057fe5b8152505090508060400151838151811061159657fe5b602002602001015191505092915050565b600460205281600052604060002081815481106115c057fe5b90600052602060002001600091509150505481565b60076020528060005260406000206000915090505481565b60026020528060005260406000206000915054906101000a900460ff1681565b60036020528060005260406000206000915090508060000160009054906101000a900473ffffffffffffffffffffffffffffffffffffffff16908060010160009054906101000a900473ffffffffffffffffffffffffffffffffffffffff169080600601549080600701549080600801549080600901549080600a0160009054906101000a900460ff16905087565b6000809054906101000a900473ffffffffffffffffffffffffffffffffffffffff1681565b60056020528060005260406000206000915090505481565b60006116e361323f565b60036000858152602001908152602001600020604051806101600160405290816000820160009054906101000a900473ffffffffffffffffffffffffffffffffffffffff1673ffffffffffffffffffffffffffffffffffffffff1673ffffffffffffffffffffffffffffffffffffffff1681526020016001820160009054906101000a900473ffffffffffffffffffffffffffffffffffffffff1673ffffffffffffffffffffffffffffffffffffffff1673ffffffffffffffffffffffffffffffffffffffff168152602001600282018054806020026020016040519081016040528092919081815260200182805480156117fd57602002820191906000526020600020905b8154815260200190600101908083116117e9575b505050505081526020016003820180548060200260200160405190810160405280929190818152602001828054801561185557602002820191906000526020600020905b815481526020019060010190808311611841575b50505050508152602001600482018054806020026020016040519081016040528092919081815260200182805480156118e357602002820191906000526020600020905b8160009054906101000a900473ffffffffffffffffffffffffffffffffffffffff1673ffffffffffffffffffffffffffffffffffffffff1681526020019060010190808311611899575b505050505081526020016005820180548060200260200160405190810160405280929190818152602001828054801561197157602002820191906000526020600020905b8160009054906101000a900473ffffffffffffffffffffffffffffffffffffffff1673ffffffffffffffffffffffffffffffffffffffff1681526020019060010190808311611927575b5050505050815260200160068201548152602001600782015481526020016008820154815260200160098201548152602001600a820160009054906101000a900460ff1660018111156119c057fe5b60018111156119cb57fe5b815250509050806060015183815181106119e157fe5b602002602001015191505092915050565b60006119fc61323f565b60036000848152602001908152602001600020604051806101600160405290816000820160009054906101000a900473ffffffffffffffffffffffffffffffffffffffff1673ffffffffffffffffffffffffffffffffffffffff1673ffffffffffffffffffffffffffffffffffffffff1681526020016001820160009054906101000a900473ffffffffffffffffffffffffffffffffffffffff1673ffffffffffffffffffffffffffffffffffffffff1673ffffffffffffffffffffffffffffffffffffffff16815260200160028201805480602002602001604051908101604052809291908181526020018280548015611b1657602002820191906000526020600020905b815481526020019060010190808311611b02575b5050505050815260200160038201805480602002602001604051908101604052809291908181526020018280548015611b6e57602002820191906000526020600020905b815481526020019060010190808311611b5a575b5050505050815260200160048201805480602002602001604051908101604052809291908181526020018280548015611bfc57602002820191906000526020600020905b8160009054906101000a900473ffffffffffffffffffffffffffffffffffffffff1673ffffffffffffffffffffffffffffffffffffffff1681526020019060010190808311611bb2575b5050505050815260200160058201805480602002602001604051908101604052809291908181526020018280548015611c8a57602002820191906000526020600020905b8160009054906101000a900473ffffffffffffffffffffffffffffffffffffffff1673ffffffffffffffffffffffffffffffffffffffff1681526020019060010190808311611c40575b5050505050815260200160068201548152602001600782015481526020016008820154815260200160098201548152602001600a820160009054906101000a900460ff166001811115611cd957fe5b6001811115611ce457fe5b81525050905060006001811115611cf757fe5b8161014001516001811115611d0857fe5b1415611d18576001915050611d1e565b60009150505b919050565b60008073ffffffffffffffffffffffffffffffffffffffff166003600084815260200190815260200160002060000160009054906101000a900473ffffffffffffffffffffffffffffffffffffffff1673ffffffffffffffffffffffffffffffffffffffff161415611de0576040517f08c379a00000000000000000000000000000000000000000000000000000000081526004018080602001828103825260248152602001806134f86024913960400191505060405180910390fd5b60006001811115611ded57fe5b60036000848152602001908152602001600020600a0160009054906101000a900460ff166001811115611e1c57fe5b14611e8f576040517f08c379a00000000000000000000000000000000000000000000000000000000081526004018080602001828103825260148152602001807f4f66666572206d7573742062652061637469766500000000000000000000000081525060200191505060405180910390fd5b600160036000848152602001908152602001600020600a0160006101000a81548160ff02191690836001811115611ec257fe5b02179055503373ffffffffffffffffffffffffffffffffffffffff166003600084815260200190815260200160002060010160009054906101000a900473ffffffffffffffffffffffffffffffffffffffff1673ffffffffffffffffffffffffffffffffffffffff1614611f81576040517f08c379a00000000000000000000000000000000000000000000000000000000081526004018080602001828103825260308152602001806134426030913960400191505060405180910390fd5b3460036000848152602001908152602001600020600901541461200c576040517f08c379a00000000000000000000000000000000000000000000000000000000081526004018080602001828103825260208152602001807f4d75737420696e636c7564652072657175697265642045544820616d6f756e7481525060200191505060405180910390fd5b60008090505b600360008481526020019081526020016000206003018054905081101561244057600060036000858152602001908152602001600020600501828154811061205657fe5b9060005260206000200160009054906101000a900473ffffffffffffffffffffffffffffffffffffffff1690503373ffffffffffffffffffffffffffffffffffffffff168173ffffffffffffffffffffffffffffffffffffffff16636352211e6003600088815260200190815260200160002060030185815481106120d757fe5b90600052602060002001546040518263ffffffff1660e01b81526004018082815260200191505060206040518083038186803b15801561211657600080fd5b505afa15801561212a573d6000803e3d6000fd5b505050506040513d602081101561214057600080fd5b810190808051906020019092919050505073ffffffffffffffffffffffffffffffffffffffff16146121bd576040517f08c379a000000000000000000000000000000000000000000000000000000000815260040180806020018281038252603781526020018061355b6037913960400191505060405180910390fd5b8073ffffffffffffffffffffffffffffffffffffffff1663e985e9c533306040518363ffffffff1660e01b8152600401808373ffffffffffffffffffffffffffffffffffffffff1673ffffffffffffffffffffffffffffffffffffffff1681526020018273ffffffffffffffffffffffffffffffffffffffff1673ffffffffffffffffffffffffffffffffffffffff1681526020019250505060206040518083038186803b15801561226e57600080fd5b505afa158015612282573d6000803e3d6000fd5b505050506040513d602081101561229857600080fd5b81019080805190602001909291905050506122fe576040517f08c379a000000000000000000000000000000000000000000000000000000000815260040180806020018281038252603f81526020018061351c603f913960400191505060405180910390fd5b8073ffffffffffffffffffffffffffffffffffffffff166342842e0e336003600088815260200190815260200160002060000160009054906101000a900473ffffffffffffffffffffffffffffffffffffffff1660036000898152602001908152602001600020600301868154811061237357fe5b90600052602060002001546040518463ffffffff1660e01b8152600401808473ffffffffffffffffffffffffffffffffffffffff1673ffffffffffffffffffffffffffffffffffffffff1681526020018373ffffffffffffffffffffffffffffffffffffffff1673ffffffffffffffffffffffffffffffffffffffff1681526020018281526020019350505050600060405180830381600087803b15801561241a57600080fd5b505af115801561242e573d6000803e3d6000fd5b50505050508080600101915050612012565b5060008090505b600360008481526020019081526020016000206002018054905081101561276a57600060036000858152602001908152602001600020600401828154811061248b57fe5b9060005260206000200160009054906101000a900473ffffffffffffffffffffffffffffffffffffffff1690506003600085815260200190815260200160002060000160009054906101000a900473ffffffffffffffffffffffffffffffffffffffff1673ffffffffffffffffffffffffffffffffffffffff168173ffffffffffffffffffffffffffffffffffffffff16636352211e60036000888152602001908152602001600020600201858154811061254257fe5b90600052602060002001546040518263ffffffff1660e01b81526004018082815260200191505060206040518083038186803b15801561258157600080fd5b505afa158015612595573d6000803e3d6000fd5b505050506040513d60208110156125ab57600080fd5b810190808051906020019092919050505073ffffffffffffffffffffffffffffffffffffffff1614612628576040517f08c379a000000000000000000000000000000000000000000000000000000000815260040180806020018281038252603b815260200180613592603b913960400191505060405180910390fd5b8073ffffffffffffffffffffffffffffffffffffffff166342842e0e6003600087815260200190815260200160002060000160009054906101000a900473ffffffffffffffffffffffffffffffffffffffff163360036000898152602001908152602001600020600201868154811061269d57fe5b90600052602060002001546040518463ffffffff1660e01b8152600401808473ffffffffffffffffffffffffffffffffffffffff1673ffffffffffffffffffffffffffffffffffffffff1681526020018373ffffffffffffffffffffffffffffffffffffffff1673ffffffffffffffffffffffffffffffffffffffff1681526020018281526020019350505050600060405180830381600087803b15801561274457600080fd5b505af1158015612758573d6000803e3d6000fd5b50505050508080600101915050612447565b5060006003600084815260200190815260200160002060080154111561281e576003600083815260200190815260200160002060010160009054906101000a900473ffffffffffffffffffffffffffffffffffffffff1673ffffffffffffffffffffffffffffffffffffffff166108fc60036000858152602001908152602001600020600801549081150290604051600060405180830381858888f1935050505015801561281c573d6000803e3d6000fd5b505b6000600360008481526020019081526020016000206009015411156128bb576003600083815260200190815260200160002060000160009054906101000a900473ffffffffffffffffffffffffffffffffffffffff1673ffffffffffffffffffffffffffffffffffffffff166108fc349081150290604051600060405180830381858888f193505050501580156128b9573d6000803e3d6000fd5b505b7f1ddf9505f5dfbca42bfce911805d7dec126e10c11846607a242b0914dc186d17826040518082815260200191505060405180910390a1919050565b60006001885110158061290c57506001865110155b612961576040517f08c379a00000000000000000000000000000000000000000000000000000000081526004018080602001828103825260238152602001806134726023913960400191505060405180910390fd5b86518851146129bb576040517f08c379a00000000000000000000000000000000000000000000000000000000081526004018080602001828103825260418152602001806135f96041913960600191505060405180910390fd5b8451865114612a15576040517f08c379a000000000000000000000000000000000000000000000000000000000815260040180806020018281038252603f815260200180613495603f913960400191505060405180910390fd5b348414612a6d576040517f08c379a000000000000000000000000000000000000000000000000000000000815260040180806020018281038252602c8152602001806135cd602c913960400191505060405180910390fd5b60008090505b8851811015612d22576000888281518110612a8a57fe5b602002602001015190503373ffffffffffffffffffffffffffffffffffffffff168173ffffffffffffffffffffffffffffffffffffffff16636352211e8c8581518110612ad357fe5b60200260200101516040518263ffffffff1660e01b81526004018082815260200191505060206040518083038186803b158015612b0f57600080fd5b505afa158015612b23573d6000803e3d6000fd5b505050506040513d6020811015612b3957600080fd5b810190808051906020019092919050505073ffffffffffffffffffffffffffffffffffffffff1614612bd3576040517f08c379a00000000000000000000000000000000000000000000000000000000081526004018080602001828103825260188152602001807f4f66666572657220646f6573206e6f74206f776e204e4654000000000000000081525060200191505060405180910390fd5b8073ffffffffffffffffffffffffffffffffffffffff1663e985e9c533306040518363ffffffff1660e01b8152600401808373ffffffffffffffffffffffffffffffffffffffff1673ffffffffffffffffffffffffffffffffffffffff1681526020018273ffffffffffffffffffffffffffffffffffffffff1673ffffffffffffffffffffffffffffffffffffffff1681526020019250505060206040518083038186803b158015612c8457600080fd5b505afa158015612c98573d6000803e3d6000fd5b505050506040513d6020811015612cae57600080fd5b8101908080519060200190929190505050612d14576040517f08c379a00000000000000000000000000000000000000000000000000000000081526004018080602001828103825260328152602001806134106032913960400191505060405180910390fd5b508080600101915050612a73565b507fc60c81367c6a883914e4be845cb4d925d275c8737771b1cae52fd40a6f377f346001546040518082815260200191505060405180910390a1600460008373ffffffffffffffffffffffffffffffffffffffff1673ffffffffffffffffffffffffffffffffffffffff16815260200190815260200160002060015490806001815401808255809150506001900390600052602060002001600090919091909150556001600560008473ffffffffffffffffffffffffffffffffffffffff1673ffffffffffffffffffffffffffffffffffffffff1681526020019081526020016000205401600560008473ffffffffffffffffffffffffffffffffffffffff1673ffffffffffffffffffffffffffffffffffffffff16815260200190815260200160002081905550600660003373ffffffffffffffffffffffffffffffffffffffff1673ffffffffffffffffffffffffffffffffffffffff16815260200190815260200160002060015490806001815401808255809150506001900390600052602060002001600090919091909150556001600760003373ffffffffffffffffffffffffffffffffffffffff1673ffffffffffffffffffffffffffffffffffffffff1681526020019081526020016000205401600760003373ffffffffffffffffffffffffffffffffffffffff1673ffffffffffffffffffffffffffffffffffffffff168152602001908152602001600020819055506040518061016001604052803373ffffffffffffffffffffffffffffffffffffffff1681526020018373ffffffffffffffffffffffffffffffffffffffff168152602001898152602001878152602001888152602001868152602001895181526020018751815260200185815260200184815260200160006001811115612fbb57fe5b81525060036000600154815260200190815260200160002060008201518160000160006101000a81548173ffffffffffffffffffffffffffffffffffffffff021916908373ffffffffffffffffffffffffffffffffffffffff16021790555060208201518160010160006101000a81548173ffffffffffffffffffffffffffffffffffffffff021916908373ffffffffffffffffffffffffffffffffffffffff160217905550604082015181600201908051906020019061307d9291906132d0565b50606082015181600301908051906020019061309a9291906132d0565b5060808201518160040190805190602001906130b792919061331d565b5060a08201518160050190805190602001906130d492919061331d565b5060c0820151816006015560e082015181600701556101008201518160080155610120820151816009015561014082015181600a0160006101000a81548160ff0219169083600181111561312457fe5b0217905550905050600180540160018190555060019050979650505050505050565b60003373ffffffffffffffffffffffffffffffffffffffff166003600084815260200190815260200160002060000160009054906101000a900473ffffffffffffffffffffffffffffffffffffffff1673ffffffffffffffffffffffffffffffffffffffff1614613202576040517f08c379a00000000000000000000000000000000000000000000000000000000081526004018080602001828103825260248152602001806134d46024913960400191505060405180910390fd5b600160036000848152602001908152602001600020600a0160006101000a81548160ff0219169083600181111561323557fe5b0217905550919050565b604051806101600160405280600073ffffffffffffffffffffffffffffffffffffffff168152602001600073ffffffffffffffffffffffffffffffffffffffff1681526020016060815260200160608152602001606081526020016060815260200160008152602001600081526020016000815260200160008152602001600060018111156132ca57fe5b81525090565b82805482825590600052602060002090810192821561330c579160200282015b8281111561330b5782518255916020019190600101906132f0565b5b50905061331991906133a7565b5090565b828054828255906000526020600020908101928215613396579160200282015b828111156133955782518260006101000a81548173ffffffffffffffffffffffffffffffffffffffff021916908373ffffffffffffffffffffffffffffffffffffffff1602179055509160200191906001019061333d565b5b5090506133a391906133cc565b5090565b6133c991905b808211156133c55760008160009055506001016133ad565b5090565b90565b61340c91905b8082111561340857600081816101000a81549073ffffffffffffffffffffffffffffffffffffffff0219169055506001016133d2565b5090565b9056fe4f66666572657220686173206e6f7420617070726f7665642074686520636f6e747261637420746f2073656e64204e4654734f666665722063616e206f6e6c7920626520616363657074656420627920696e74656e64656420726563697069656e744f66666572206d75737420696e636c756465206174206c65617374206f6e65204e46544e465420494473202861736b29206172726179206d757374206265207468652073616d652073697a652061732074686520636f6e74726163742061727261794f6e6c7920746865206f6666657265722063616e2063616e63656c20616e206f666665724f666665726572206d757374206e6f7420626520746865206275726e20616464726573735573657220616363657074696e67206f6666657220686173206e6f7420617070726f7665642074686520636f6e747261637420746f2073656e64204e4654735573657220617474656d7074696e6720746f20616363657074206f6666657220776974686f7574206f776e696e6720746865204e4654735573657220617474656d7074696e6720746f20616363657074206f666665722074686174206f6666657265722063616e6e6f742066756c66696c6c4d75737420696e636c7564652045544820746f206d61746368206f6666657265642045544820616d6f756e744e46542049447320286f6666657229206172726179206d757374206265207468652073616d652073697a652061732074686520636f6e7472616374206172726179a2646970667358221220a9eb8457b14d62b163f12b7ecf7053ece09fdd4181623bfc6154c7883439df6264736f6c63430006020033",
  "source": "pragma solidity ^0.6.0;\r\n\r\nimport \"../openzeppelin-contracts/contracts/token/ERC721/ERC721.sol\";\r\n\r\ncontract Swap {\r\n\r\n    address public owner;\r\n    uint public offerCount;\r\n    \r\n\r\n    struct TradeOffer {\r\n        address payable offerer;\r\n        address payable asker;\r\n        uint[] offer;\r\n        uint[] ask;\r\n        address[] offerContract;\r\n        address[] askContract;\r\n        uint offerLength;\r\n        uint askLength;\r\n        uint offerVal;\r\n        uint askVal;\r\n        State state;\r\n    }\r\n\r\n    enum State {Active, Closed}\r\n    mapping(address => bool) public approvedERC721;\r\n    mapping(uint => TradeOffer) public offers;\r\n    mapping(address => uint[]) public offersByAddress; \r\n    mapping(address => uint) public offerCountByAddress;\r\n    mapping(address => uint[]) public offersCreatedByAddress; \r\n    mapping(address => uint) public offersCreatedCountByAddress;\r\n\r\n    event LogOfferAdded(uint offerAddedId);\r\n    event LogOfferAccepted(uint offerAcceptedId);\r\n    event LogNFTApproval(address contractAddressApproved);\r\n    event LogNFTRemoval(address contractAddressRemoved);\r\n\r\n\r\n    modifier onlyOwner (address _address) {require(_address == owner); _;}\r\n\r\n    constructor() public {\r\n       owner = msg.sender;\r\n       offerCount = 0;\r\n    }\r\n\r\n    function approveNFT(address _NFTContract) public onlyOwner(msg.sender) {\r\n        emit LogNFTApproval(_NFTContract);\r\n        approvedERC721[_NFTContract] = true;\r\n    }\r\n\r\n    function removeNFT(address _NFTContract) public onlyOwner(msg.sender) {\r\n        emit LogNFTRemoval(_NFTContract);\r\n        approvedERC721[_NFTContract] = false;\r\n    }\r\n\r\n    function addOffer(uint[] memory _offer, address[] memory _offerContract\r\n                    , uint[] memory _ask, address[] memory _askContract\r\n                    , uint _offerVal, uint _askVal, address payable _targetAddress) public payable returns (bool) {\r\n\r\n        require(_offer.length >= 1 || _ask.length >= 1, \"Offer must include at least one NFT\");\r\n        require(_offer.length == _offerContract.length, \"NFT IDs (offer) array must be the same size as the contract array\");\r\n        require(_ask.length == _askContract.length, \"NFT IDs (ask) array must be the same size as the contract array\");\r\n        require(_offerVal == msg.value, \"Must include ETH to match offered ETH amount\");\r\n        for(uint i = 0; i < _offer.length; i++) {\r\n            ERC721 con = ERC721(_offerContract[i]);\r\n            require(con.ownerOf(_offer[i]) == msg.sender, \"Offerer does not own NFT\");\r\n            require(con.isApprovedForAll(msg.sender, address(this)), \"Offerer has not approved the contract to send NFTs\");\r\n        }\r\n\r\n        emit LogOfferAdded(offerCount);\r\n        offersByAddress[_targetAddress].push(offerCount);\r\n        offerCountByAddress[_targetAddress] = offerCountByAddress[_targetAddress]+1;\r\n        offersCreatedByAddress[msg.sender].push(offerCount);\r\n        offersCreatedCountByAddress[msg.sender] = offersCreatedCountByAddress[msg.sender]+1;\r\n        offers[offerCount] = TradeOffer({offerer: msg.sender\r\n            , asker: _targetAddress\r\n            , offer: _offer\r\n            , offerContract:_offerContract\r\n            , ask: _ask\r\n            , askContract:_askContract\r\n            , offerLength:_offer.length\r\n            , askLength:_ask.length\r\n            , offerVal: _offerVal\r\n            , askVal:_askVal\r\n            , state: State.Active});\r\n        offerCount = offerCount + 1;\r\n        \r\n        return true;\r\n    }\r\n\r\n    function acceptOffer(uint _offerId) public payable returns (bool) {\r\n        require(offers[_offerId].offerer != 0x0000000000000000000000000000000000000000, \"Offerer must not be the burn address\");\r\n        require(offers[_offerId].state == State.Active, \"Offer must be active\");\r\n        offers[_offerId].state = State.Closed; \r\n        require(offers[_offerId].asker == msg.sender, \"Offer can only be accepted by intended recipient\");\r\n        require(offers[_offerId].askVal == msg.value, \"Must include required ETH amount\");\r\n        \r\n        for(uint i = 0; i < offers[_offerId].ask.length; i++) {\r\n            ERC721 con = ERC721(offers[_offerId].askContract[i]);\r\n            require(con.ownerOf(offers[_offerId].ask[i]) == msg.sender, \"User attempting to accept offer without owning the NFTs\");\r\n            require(con.isApprovedForAll(msg.sender, address(this)), \"User accepting offer has not approved the contract to send NFTs\");\r\n            con.safeTransferFrom(msg.sender, offers[_offerId].offerer, offers[_offerId].ask[i]);\r\n        }\r\n        for(uint i = 0; i < offers[_offerId].offer.length; i++) {\r\n            ERC721 con = ERC721(offers[_offerId].offerContract[i]); \r\n            require(con.ownerOf(offers[_offerId].offer[i]) == offers[_offerId].offerer, \"User attempting to accept offer that offerer cannot fulfill\");\r\n            con.safeTransferFrom(offers[_offerId].offerer, msg.sender, offers[_offerId].offer[i]);\r\n        }\r\n\r\n        if(offers[_offerId].offerVal > 0) {\r\n            offers[_offerId].asker.transfer(offers[_offerId].offerVal);\r\n        }\r\n\r\n        if(offers[_offerId].askVal > 0) {\r\n            offers[_offerId].offerer.transfer(msg.value);\r\n        }\r\n\r\n        emit LogOfferAccepted(_offerId);\r\n    }\r\n\r\n    function cancelOffer(uint _offerId) public returns (bool) {\r\n        require(offers[_offerId].offerer == msg.sender, \"Only the offerer can cancel an offer\");\r\n        offers[_offerId].state = State.Closed;\r\n    }\r\n\r\n    function getOfferFromOffer(uint _offerId, uint _index) public view returns (uint) {\r\n        TradeOffer memory off = offers[_offerId];\r\n        return off.offer[_index];\r\n    }\r\n\r\n    function getOfferFromAsk(uint _offerId, uint _index) public view returns (uint) {\r\n        TradeOffer memory off = offers[_offerId];\r\n        return off.ask[_index];\r\n    }\r\n\r\n    function getOfferLengthFromOffer(uint _offerId) public view returns (uint) {\r\n        TradeOffer memory off = offers[_offerId];\r\n        return off.offerLength;\r\n    }\r\n\r\n    function getOfferLengthFromAsk(uint _offerId) public view returns (uint) {\r\n        TradeOffer memory off = offers[_offerId];\r\n        return off.askLength;\r\n    }\r\n\r\n    function getOfferState(uint _offerId) public view returns (bool) {\r\n        TradeOffer memory off = offers[_offerId];\r\n        if (off.state == State.Active) {\r\n            return true;\r\n        } else {\r\n            return false;\r\n        }\r\n    }\r\n\r\n}",
  "sourcePath": "C:/Users/rober/Code/Consensys/barter/contracts/Swap.sol",
  "compiler": {
    "name": "solc",
    "version": "0.6.2+commit.bacdbe57.Emscripten.clang"
  },
  "schemaVersion": "3.2.5",
  "updatedAt": "2020-11-15T23:20:07.499Z",
  "networkType": "ethereum",
  "devdoc": {
    "methods": {}
  },
  "userdoc": {
    "methods": {}
  }
}